:020000040000fa
:080000000002040000000000f2
:020000040000fa
:100008009a0200009a0200009a0200009a02000078
:100018009a0200009a0200009a0200009a02000068
:100028009a0200009a0200009a020000525400004e
:100038009a0200009a0200009a0200009a02000048
:100048009a0200009a0200009a0200009a02000038
:100058009a0200009a020000047600009a0200004a
:100068009a0200009a0200009a0200009a02000018
:100078009a0200009a0200009a0200009a02000008
:10008800e07600009a0200009a0200009a0200003e
:100098009a0200009a0200009a0200009a020000e8
:1000a8009a0200009a0200009a020000f47600000a
:1000b8009a0200009a0200009a0200009a020000c8
:1000c8009a0200009a0200009a0200009a020000b8
:1000d8009a0200009a0200009a0200009a020000a8
:1000e8009a0200009a0200009a0200009a02000098
:1000f8009a0200009a0200009a0200009a02000088
:100108009a0200009a0200009a0200009a02000077
:100118009a0200009a0200009a0200009a02000067
:100128009a0200009a0200009a0200009a02000057
:100138009a0200009a0200009a0200009a02000047
:100148009a0200009a0200009a0200009a02000037
:100158009a0200009a0200009a0200009a02000027
:100168009a0200009a0200009a0200009a02000017
:100178009a0200009a0200009a0200009a02000007
:100188009a0200009a0200009a0200009a020000f7
:100198009a0200009a0200009a0200009a020000e7
:1001a8009a0200009a0200009a0200009a020000d7
:1001b8009a0200009a0200009a0200009a020000c7
:1001c8009a0200009a0200009a0200009a020000b7
:1001d8009a0200009a0200009a0200009a020000a7
:1001e8009a0200009a0200009a0200009a02000097
:0801f8009a0200009a020000c7
:020000040000fa
:100208009a0200009a0200009a0200009a02000076
:100218009a0200009a0200009a0200009a02000066
:100228009a0200009a0200009a020000525400004c
:100238009a0200009a0200009a0200009a02000046
:100248009a0200009a0200009a0200009a02000036
:100258009a0200009a020000047600009a02000048
:100268009a0200009a0200009a0200009a02000016
:100278009a0200009a0200009a0200009a02000006
:10028800e07600009a0200009a0200009a0200003c
:100298009a0200009a0200009a0200009a020000e6
:1002a8009a0200009a0200009a020000f476000008
:1002b8009a0200009a0200009a0200009a020000c6
:1002c8009a0200009a0200009a0200009a020000b6
:1002d8009a0200009a0200009a0200009a020000a6
:1002e8009a0200009a0200009a0200009a02000096
:1002f8009a0200009a0200009a0200009a02000086
:100308009a0200009a0200009a0200009a02000075
:100318009a0200009a0200009a0200009a02000065
:100328009a0200009a0200009a0200009a02000055
:100338009a0200009a0200009a0200009a02000045
:100348009a0200009a0200009a0200009a02000035
:100358009a0200009a0200009a0200009a02000025
:100368009a0200009a0200009a0200009a02000015
:100378009a0200009a0200009a0200009a02000005
:100388009a0200009a0200009a0200009a020000f5
:100398009a0200009a0200009a0200009a020000e5
:1003a8009a0200009a0200009a0200009a020000d5
:1003b8009a0200009a0200009a0200009a020000c5
:1003c8009a0200009a0200009a0200009a020000b5
:1003d8009a0200009a0200009a0200009a020000a5
:1003e8009a0200009a0200009a0200009a02000095
:0803f8009a0200009a020000c5
:020000040000fa
:10040000afa320000e7b24000e0188000000000036
:10041000000020000000e000020032000001200087
:10042000200288000c000700a0c82700010020005f
:1004300011000700000020000000e0000200320070
:100440000000020000000000fa7802000000000036
:100450000040da000000fe004440a9000000240033
:100460000000e0000300320000002000a00188002e
:100470004440a80000000600910188008000780038
:100480000000eb0015003700e280400032a0b4000d
:100490009101ba00e280400032a0b4009102ba009b
:1004a000e280400032a0b4000002eb00472bde00e7
:1004b000f507b200602ce10004003a000059eb009f
:1004c0008301e900fdff3e00040037006128e100e0
:1004d000010032000082eb00040007001101ba00a5
:1004e0000200e000e8ff3a00000006003159ba00bf
:1004f0008301e9000c0032002159ba008301e900b0
:10050000080032000400e00003003a00e2804000ee
:1005100032a0b400f5ff370011d9ba008301e90019
:10052000faff3a008100e800e180400032a0b40008
:10053000000006000040da000000fe00889fbe00b8
:100540008a9fbe008c1f7800ca000700100220009e
:1005500002003b00c0518800ce0037008a006200d4
:100560006408e10002003a00c0518800d60037005c
:100570006108e100fcff32000800be0003047800bf
:100580004604070001f0a100ee02070008f0a600f3
:10059000040037000001be0091042400b0fd2000db
:1005a0000401070009f0a70001f0a200c200370013
:1005b000839f68000100e00002003d006000100021
:1005c000e08018000300e00002003d00600111001f
:1005d000e08119006b0207004f00e00002003b00c1
:1005e00060001000e08018000000060014002000e9
:1005f00010073700f4ff2f000e0737000001be0080
:10060000870007000470a70003f0a1006509b1008e
:10061000160032000d0035006828e10006003500a4
:10062000f0ff2f00f1ff27000300e00013003b0064
:100630000100280000000500000040008180480003
:100640008502e900fcff3a0008003700f88f4200fd
:1006500002003c008000eb00000005008100d1009a
:100660000080d3008502e800fcff3a000300e000b0
:1006700002003b0060001000e0801800000006004f
:10068000881f7800030478000300e00007003d00a5
:1006900060001000e080180060011900e08119007e
:1006a00002003b0001f02d000300370007000700a7
:1006b00008f0a70001f0a0004f0478000000060039
:1006c0004f89de0082017800edff3700889fbe0071
:1006d0008a9fbe00008270000402710004827100d3
:1006e000260032000004be000200be006011b80007
:1006f0006b092000950220000182cf000a0039001a
:100700000541b1000082cf00070039000541b1006a
:100710000982cf00040039000541b1000882cf00f2
:10072000010039000541b1000542520012003200bb
:100730000a003b0082817100610164008100d100e8
:100740000080d3008984d3000884d3008b05e8009f
:100750000442e800f7ff3a000700370008044400ad
:1007600089844c0000004800818048008b05e90026
:100770000442e900f9ff3a00030007004f05be00fc
:100780004f04be000000060081002000618055007b
:100790000b003d000b00200061fe2f000100e10076
:1007a0001d00340082817100610164008904d10060
:1007b0000884d3000000e800faff3a00710020002e
:1007c0006100640003007000020060000900320054
:1007d00061044400e0844c000988a5000500320053
:1007e0008b05e8006808e10002003a008904d100a6
:1007f0000884d300f20f20000258e10005003d00fc
:10080000c75ddd00f907b200898075000800780037
:10081000000006000bf827008b00780000000500a0
:10082000c70ade00f107b200f50fb200080032007f
:10083000e1cf4200020032000170a0002400050058
:10084000810f70000100320004080500440005001b
:10085000810f700002003a00140005008502e900d3
:100860000000400081c04800fcff3b000170a00078
:10087000240005000004be00e9ff07000003be00dd
:100880000405be000200be00e5ff0700844f7500ae
:10089000000006000200be006450e10005003600c2
:1008a0006420e100020036000968a30001003a005c
:1008b0000800be000160a0004f0678004f05be0092
:1008c0004f04be0000000600f0ff2f00f1ff2700dc
:1008d000f9ff3700811f78000100e00002003d00b1
:1008e00060001000e08018000300e00002003d00fe
:1008f00060011100e08119000f0207004f00e000c5
:1009000002003b0060001000e080180000000600bc
:10091000889fbe008a9fbe008c1f78000006eb00f7
:10092000e00f5000e08f5800e00f5900e08f5900b1
:1009300007003d006044b8006055b8001c0020006e
:100940000000540081805c0002015d0083815d0035
:10095000e00f5200e08f5a00e00f5b00e08f5b0079
:1009600007003d006044b8006055b8000c00a200cc
:100970000402540085825c0006035d0087835d00ed
:1009800047060700e00f5600060032006022b8005c
:100990006033b8000000520081805a0002015b0001
:1009a00083815b004f0678004f05be004f04be00f8
:1009b0000000060007f82700078361000638e10001
:1009c00004003a00f7072000878361008703710065
:1009d00001003a0003f0a200889fbe008a9fbe007b
:1009e0008c9fbe00470ade000480a100c71ade000b
:1009f0000580a10007002800078560008785610049
:100a0000f70f20000720e1009e0032000728e100d8
:100a10009c003200010678000400e000b4003200bf
:100a2000f7072000878060000170a0000500e0004b
:100a3000c0003200f7072000878161000370a0002a
:100a4000050652000f003a000b50e1000b00320087
:100a50000308e10002003a000200e1007e003200db
:100a60000204500083845800040031000001fd009e
:100a70008101fd008402fd008a05fd006044b8008c
:100a8000210037000520e10005003d000001fd00c8
:100a90008101fd008402fd008a05fd00050652006b
:100aa0007a60e100050035000170a1004722dd00f9
:100ab000848070008a807000630037006044b80052
:100ac000ef02660007ff2f00070666000500e00042
:100ad00006003400f08312008714dd000511de00eb
:100ae000071bdd00060171008519de007060e10062
:100af00005003500090478008204780003017800bd
:100b00008001eb00700656000b50e10003003a0034
:100b10000200400083804800040037006004140095
:100b2000e0841c0002005800838058000188a30064
:100b3000060032008100d1000080d3008984d300f8
:100b40000884d3000402e800270037000178a300de
:100b500025003a000100e000030032008186cf004a
:100b6000698656000a0037008c0020000000e00073
:100b700004003a0009007800880478000004eb00c3
:100b8000700252008086cf000d0646000c06e90078
:100b90007060e100060035008000780009007800f0
:100ba000880478000004eb007006560070025200c2
:100bb0000c00e0000c0034008c08dd00f00316008f
:100bc0000703de00868070000c00dd00074bde00ae
:100bd000060070008c4cdd000743de008684740044
:100be0000c44dd000c0252006120e10020003500c1
:100bf000610160000700280087816400f7ff27007b
:100c000087836400070374000300e00006003200dd
:100c100082037300040032000000e800e080480016
:100c20000188a3000e003a00f70f20000720e10022
:100c30004a003d000170a1004722dd0081007200e2
:100c40008a8070000000be004f06be004f05be0047
:100c50004f04be00000006006000b800faff370035
:100c60008100d1000080d3000402e800eeff3700cd
:100c700004017800890174000c0407008a80700068
:100c8000f1ff3700a8050700070278000001fd000a
:100c90008101fd00a405070087027800850372002a
:100ca0000778a300040032000001fd008101fd006f
:100cb00059030700e4ff3700850362000768a300bb
:100cc000080032000b50e10003003200f0ff2f005b
:100cd000f1ff2700dcff37000001fd008101fd006e
:100ce000d9ff37000468a300d7ff3200faff3700ae
:100cf000f8ff2700888360000b003a000000e00046
:100d000009003a008303640082837300020032000a
:100d10000200be00ccff37000b50e100ceff3a00ce
:100d20000200be00c8ff37001400200081006400ec
:100d30003eff3700f8ff27008883610004003a0077
:100d40000200e00002003a008c007800beff37008d
:100d5000150020008301640039ff370001f82700e7
:100d60000000200081007500b7ff37000383680092
:100d70000700280007036300470ade000480a10083
:100d8000c71ade000580a100f70f20000720e10050
:100d9000420032000728e10040003200889fbe0078
:100da0008a9fbe008c1f7800f107b200f307b200e3
:100db0000400e000640032000170a0000500e000c3
:100dc000680032000370a00085054200eb07b10007
:100dd0000204b8000302b8008484440060854a001d
:100de000020ab800848444000a854a00030ab80055
:100df00004054500040033000804d0008984d200b3
:100e00000a85d2008b05e9006158e1003d003500fc
:100e1000021020000901610003082000898161009f
:100e2000f70720008783640008867300c84cde0043
:100e3000c853dd00878474004855de000300e000dd
:100e40000600320082037600040032008904e800c4
:100e500060054d000a88a3000c003a00f70f20003f
:100e60000758e10044003d000a70a100c75ddd00a5
:100e70000a8575008a007300090078004f06780023
:100e80004f05be004f04be00000006000a05d10059
:100e90008984d3008b05e800f0ff3700881f7800b5
:100ea0000604780020050700070278000001fd0015
:100eb0008101fd001c050700870278008503720090
:100ec0000778a300050032000001fd008101fd004c
:100ed000d10207004f04780000000600850372006d
:100ee0000748a30003003200f0ff2f00f1ff2700a6
:100ef000f8ff37000000200001f82700888070000c
:100f0000f4ff3700880178004848dd0080817100d7
:100f10004848de00c850dd0001007000c850de0007
:100f2000060478000b0178006003070088807000d9
:100f3000d2ff37000500e000050032001700200056
:100f4000a70107009dff370081037000f9ff3a00f9
:100f5000860078004f0678004f05be004f04be00a3
:100f60000000050083037100f9ff32002700200014
:100f70009b01070094ff370001f82700868070006e
:100f8000f4ff3700020250008382580061003900ec
:100f90000303710062003200050372005900320041
:100fa0000300e0005500330017003a000100e000a4
:100fb0004b0032000208e100060031001100090078
:100fc0004288d800010178008001eb008000eb002e
:100fd000000006006110e100550032000002be0072
:100fe000110009008280d800800278000400780097
:100ff000110009004288d800010178008001eb004f
:101000008500780000000600889fbe008a9fbe0011
:101010008c9fbe000386cf000c06e9008c1f780071
:101020008c19dd00f00216000512de0084817100cb
:101030000c11dd000003be008004eb00053cde0067
:101040008c3bdd000532de00848373000c33dd0051
:101050000700780088007800110009004388d80054
:101060000202b8000306b8008c82420060854e0080
:101070008005eb000402530085825b000a055c00da
:101080008b855c000b0033008000eb004f0678007e
:101090000c21de00700516000a2ddd000a0171002a
:1010a0008c29de004f06be004f05be004f04be0077
:1010b000000006000202420083824a0060054d00e3
:1010c000e0854d000000e9000b00e000eeff3d0070
:1010d0000202420083824a000000e900eaff370072
:1010e0000000e00012003200110009000280d80068
:1010f000010178008000eb00000006000401be0042
:10110000010037006011b800100020008000eb00e3
:10111000000006000001be006000b80000000600ec
:101120000001be00f0ff2f00f1ff2f0000000600bd
:101130006011b8000000060092ff07000200be0028
:1011400000000600889fbe008a9fbe008c9fbe00e4
:101150003400f80006002000a601880006002800e0
:101160008686600001f0a1000600200007e0230051
:10117000060350008783580012003100060020004b
:101180000798230006035000878358005c0039004d
:10119000930207000005be00820478000002be0032
:1011a000820178002502070043002000643a2d00e8
:1011b000a80407000a02be00890178001f02070088
:1011c0004e003700060020000710240006035000e0
:1011d00087835800380031000600200007fd2300f7
:1011e00006035000878358000b0031007c02070083
:1011f0000005be008204780062014100640407001b
:1012000000067800e103070062015100809fbe00e4
:10121000821f780008003700710207000005be0039
:10122000820478005a04070065064000d7030700cf
:10123000809fbe00821f78000a02be0089017800ec
:1012400007002400060020000800200051000700cd
:101250000005fd008105fd008204fd00cf0178003e
:101260004f02be00be0207000a02be0089017800dc
:10127000d30107000104780008f8a300020032003f
:1012800060001000e08018002d00070008f8a3009f
:101290000200320060001000e0801800663b2d0064
:1012a0006665b800060345003602be009601780068
:1012b000ad020700110037000600200007c8240017
:1012c00006035000878358001300310044020700d2
:1012d0000002be008201780001002400000020000e
:1012e00002002000b601070015000700754826001f
:1012f00014d52e000300200096020700e502070027
:101300008d8070003400f9004f06be004f05be000e
:101310004f04be0000000600030407000778a30086
:1013200003003a00b0fd200091fc2300f4ff3700d9
:101330000160a00016022000c6518800f0ff3700af
:101340000100e0000d003200ef0341000b0035000a
:10135000809fbe00821f78000002be0082017800dc
:10136000b601070043002000643a2d00390407004d
:10137000cf0178004f02be00b00107000000060058
:1013800060001000e08018000200370060031300c6
:10139000e0831b00889fbe008a9fbe008c9fbe001a
:1013a000830441000405b800050eb8000501b8002b
:1013b0008285450003064e00e0864e000409b80011
:1013c0008285450003064e00e0864e000100e000e5
:1013d00002003d000406560085865e000500e00020
:1013e00002003d000006560081865e000d00e00010
:1013f000740032000700e000750032006022b8007f
:101400008783d1000683d3008582d300090054006e
:101410000000e9001b003c003b0035000804e80028
:101420000a0042008b804a000c014b008d814b006a
:101430008c040700040454000300e0000e00320096
:10144000090028000918e100060032000200be0071
:10145000080178004f06be004f05be004f04be00d5
:10146000000006000200e000f8ff3a0003002c0034
:101470000804e800f5ff37006000b8000001eb0049
:10148000f4ff37000804e8007e00e10001003400aa
:10149000e0012000cfecde00ef0060000100e00082
:1014a0000c003200f08110000155de000359dd0010
:1014b00002057500815dde000361dd008285750037
:1014c0000166de000369dd000206760081eede00c3
:1014d000010050004400de006501b8000260010018
:1014e0000a0042008b804a000c014b008d814b00aa
:1014f000cfff37000b0042008c804a000d014b00eb
:1015000089814b00caff3700628444000000ea0072
:10151000030420000300e100010034000004200067
:10152000cfbcde00ef0060000a003200f081100046
:10153000032add00812ade000331dd008282720091
:101540000133de000339dd000203730081bbde00de
:10155000010050004400de006501b8000260010097
:101560000a0042008b804a000c014b008d814b0029
:10157000afff37000a8042008b004b000c814b000c
:101580008d814c00aaff37000a0043008b804b007e
:101590000c814c008d814c00a5ff37000a80430070
:1015a0008b804c000c814c008d814c00a0ff3700db
:1015b0000a8044008b804c000c814c008d814c00d3
:1015c0009bff37000600be0008017800a1ff37002e
:1015d0000c01be000a00be006284440094ff370084
:1015e000889fbe000004eb006138e10016003a005d
:1015f0000100e00008003a00c800de004800dd00fd
:10160000880020000100e00003003a00c800de006e
:101610004800dd00680444008184cf00e984540060
:10162000060034008908dd00f08314008703de0023
:10163000878070000900dd00090444006102140085
:101640004f04be00000006000300e00008003a005e
:10165000c811de004811dd00880020000300e00012
:1016600003003a00c811de004811dd0068044400a0
:101670008384cf00e9845400060034008919dd001a
:10168000f08314008713de00878171000911dd00eb
:1016900009044400e1021400e9ff3700889fbe00fe
:1016a0008a9fbe008c9fbe001b0020000202be006d
:1016b0000586680006002800060666004709de0069
:1016c000f20fb200820032000243e80080003200d4
:1016d000c729de00f30fb2007d0032000343e800ab
:1016e0007b003200f107b2000170a000f507b200e4
:1016f0000570a000c708dd004903de008680700089
:101700004700dd00c72add004923de008682720023
:101710004722dd0003055100040350008583580073
:101720000300310000004000818048000a05e90004
:101730008c1f78008a9fbe000400500085805800ee
:101740000402420085824a00000040008180480077
:101750000005eb000004be006033b8000406be00c4
:101760000d48e10056003100110009004dccd800b1
:101770000c01b8000d02b8008481410060824a006b
:101780008283530003045c0084845c0060055d0078
:101790000a00e00025003a00800578000d40e100d5
:1017a0004900310088007800070078001100090026
:1017b0004d88d8000c01b8000d02b80084814100aa
:1017c00060824a006003110083835b0004045c00b4
:1017d000e0845c000900e00021003a004f01be00f7
:1017e0000300e0002b003200e301600007067300f5
:1017f0008c81710001003200640070004200de0044
:101800004e5edd000c007000c258de0001e0a0005a
:10181000a0010700cf017800818071004f06be0053
:101820004f05be004f04be00000006008c8343003d
:101830000d044c00e0844c0060054d000000e90000
:101840000a00e000d4ff32008c8343000d044c00fa
:10185000e0844c0060054d000000e900ceff370039
:101860000c0343008d834b0060044c00e0844c006b
:101870000000e9000900e000d8ff32000c0343003b
:101880008d834b0060044c00e0844c000000e900b4
:10189000d2ff37004200de004e5edd000c0070001b
:1018a000c258de0001e0a000cf0178000300e00094
:1018b000daff320060001000e0801800d7ff370028
:1018c000f0ff2f00aaff3700f0ff2f00b9ff37000d
:1018d0000404be0094020700870678000004fd009f
:1018e0008104fd0090020700078366000678a300cc
:1018f000030032000960a7000800be002c0037007a
:101900000d78a300020032000800be002800370056
:101910000778a30026003a0001f0a10009f0a10019
:101920000668a30003003200f1ff2700f0ff2f003c
:10193000baff37000d68a300030032000800be00a4
:101940008c807000b5ff37000768a30007003a00dd
:101950000648a30003003200f1ff2700f0ff2f002c
:10196000aeff37000d48a300030032006000b8004e
:101970008c807000a9ff37000748a30004003200e4
:1019800001f82700000020008c807000a3ff3700c2
:10199000930007000004fd008104fd0002057800ab
:1019a0008f0007000802be008a01780059ff370047
:1019b0000160a00012022000c251880097ff37008a
:1019c0000100e000120032000500e00010003200cb
:1019d000889fbe008a9fbe008c9fbe000006eb0061
:1019e00001f8a3000300320060001000e08018003e
:1019f0000cf0a00005f8a300030032006002120002
:101a0000e0821a000cf0a2008005eb0041ff3700d5
:101a10006000b800020005000478a3000400320052
:101a20000578a300030032000168a30001003a001a
:101a30000200be000160a00000000600889fbe00fa
:101a40008a9fbe000004be000405be0003014100e1
:101a50000201e8008000eb000a42b8000b43b80026
:101a60008682420060804b000a4bb80086824200aa
:101a700007004800e08048000b4bb800060040001b
:101a8000878048000103700002003a000001eb006b
:101a9000120037000900e00002003d000a0050007b
:101aa0008b8058000b00e00002003d000800500051
:101ab00089805800858242000000480081804800eb
:101ac0008101df000300e000040032008582420053
:101ad00000004800818048000201e9004f05be0077
:101ae0004f04be000000060001f8a3001d003a00ec
:101af0004709de00f40f20000410e1002600320048
:101b00000200e0002c003200f107b200c708dd003f
:101b10004902de00848070004700dd0001e0a00083
:101b2000f207b1002e010700f207b0000404200004
:101b3000840160004700de00490add0004007000f7
:101b4000c708de000300e000020032006100400030
:101b5000e0804800f107b2004711dd00828070008c
:101b600000000600f4ff270004826000800272007b
:101b700001003a000000060006f827000620e100f8
:101b8000120035008102630006826a0004027000c0
:101b90000e0032000600370004f8270004826800b7
:101ba00003003a000400200000026a000b0032002b
:101bb0000160a000000006000082700001003a00f1
:101bc0000000060006000700d6ff370012022000c2
:101bd000c2518800f0ff2f00f1ff2700000006002f
:101be0004f0ade004709de00f107b200f20fb20033
:101bf0000b003200f207b1000170a000c708dd0041
:101c0000c901de00838070004700dd000400a600eb
:101c10000000060060001000e080180000000600d0
:101c2000810f700001003a00000006008182cf00a1
:101c30000500e00010003e008082cf00ee824200ee
:101c40007028e1000400390007003e0080007800a1
:101c50000000eb000e003700708312008600de00eb
:101c60000500dd000a003700708352008600dd00a9
:101c70000000eb0006003700e28252008508dd001c
:101c8000708312000603de00868070000500dd0010
:101c90007507b0000501ea000400a6000000060078
:101ca00060001000e0801800000006000100e00065
:101cb00026003200610111007810e10023003c0091
:101cc0006022b8007010e100040035008002780046
:101cd000010078008000eb00700151000200e0007c
:101ce0000900340070031100062add00822ade009c
:101cf0008603dd00878272000200de00860bdd00b5
:101d0000070070008208de0084817100f4ff270064
:101d100004826200848171000400280084826200d1
:101d20006102600005f0a600000006000482710058
:101d3000070032000000e800e080480000000600d4
:101d40000002be006000b800efff37006000b8007e
:101d50000000060060001000e0801800020037005c
:101d600060021200e0821a000100e0003f00320031
:101d70000500e00039003200889fbe008a9fbe0047
:101d8000820378008304510004003d000002fd003e
:101d90008102fd008904ea008303780001017800d4
:101da000800078000000eb000503780084027800d2
:101db0000002eb0006056900070035000281d10032
:101dc0008180d3000080d3000683d1008582d300b8
:101dd0000482d3008703e8007048e1000600350064
:101de0007f48e10029003c00050278008602780067
:101df0004fb3de00f08454000900e0000800320018
:101e00000922de00708514008a2ddd000b027200ad
:101e1000892ade008a35dd008b82720009b3de007c
:101e2000040040008580480006014900cc010700fd
:101e3000838353000200e000090032000b002800f9
:101e40000b10e1000c0032000100780082007800e5
:101e5000070178004f05be004f04be0000000600d9
:101e60006000b8000001eb00faff37000400be007c
:101e700003017800000006000100e000f2ff3a00d4
:101e800002002c008703e800efff3700f901200073
:101e9000d5ff370081017000270032008002eb007f
:101ea00001f8a3000300320060001000e080180079
:101eb00015002000f4072000020242002000340038
:101ec000f70320008703600006042000000363007e
:101ed00002082000000161004700de00c909dd00a2
:101ee00000807100c708de000600e0000800320034
:101ef00087037100060032001000b0000180b000be
:101f00000188a30002003200c108de000402e800dc
:101f1000f107b200f30f20000320e10003003d00b1
:101f20004722dd00810072002900370001f82700f8
:101f30000000eb00260037006000b800000006003b
:101f4000680212007f20e100020034006000b80047
:101f50001f0037006011b8007020e1000400350058
:101f600080017800010078008000eb0070025200d0
:101f70000400e00009003400f00312000719dd003e
:101f80008419de000703dd00868171000400de0095
:101f9000070bdd00060070008408de00f7ff270055
:101fa0008383630087037100060028000303630036
:101fb000070032000700e00003003a006101600002
:101fc00002817300020032001000b0000180b000f6
:101fd0000500a6000000060001f0a00000000600b9
:101fe0008103700068003200889fbe008a9fbe0097
:101ff0008c9fbe003400f80008002000a801880073
:102000000208a300030032000000d0008180d2004b
:102010000201e90081017800800278000002eb00f3
:10202000821f78004a1cde000801b100a9402d0083
:1020300069417c000281fb000214b8004644dd00c7
:102040000340e100010036000201e9004111dd001a
:102050001200b3000214b8004444dd000340e10064
:10206000010036000201e9004111dd001200b30059
:102070000214b8004244dd000340e10001003600d4
:102080000201e9004111dd001200b3000214b800a2
:102090000340e100010036000201e9000214b8002b
:1020a000088651004763dd00492cde0008037300f9
:1020b000820478004834de000940e1002e0031003f
:1020c000110009000983d8004811dd0000017100ea
:1020d0000214b8000006eb00840678000885520060
:1020e00089855900040031000201e9000214b8009a
:1020f0000885520089855900820478000b04d100bc
:102100008a83d3000d83d3000938e1001c0031001d
:102110001100090049bbd8008002eb000003b800a1
:102120000204b8000804440089844c00e0824a009c
:102130008703440060824c00e0814a000603560099
:1021400087835e0004025d0083815d000100310031
:102150000000e9008200d1000080d3004f01780028
:102160004191de003400f9004f06be004f05be006d
:102170004f04be0000000600f00f2000d2ff370021
:10218000f0ff2f00e4ff3700020005000003eb0022
:102190008101df008301ea006f18e1000f003200c7
:1021a0000300e000060032008308dd0070821100a9
:1021b0008402de00858070000300dd00030343001d
:1021c0000100e00014003200040028000408e100cf
:1021d000130032007e011300000006008100d100d0
:1021e0008080d3004f00dd00f60020008101df0079
:1021f0008301ea006f18e100e9ff3a008100d10095
:102200008080d3000000eb00e60120008101df00a8
:102210008301ea00e2ff37006000b8000200050019
:102220000000e000ebff3a0001002c000603e9008b
:10223000e8ff3700889fbe008a9fbe00841f780099
:102240008cf907004f00780011003300f0ff2f00d9
:10225000838f6c0006003b00040565000a00a700a0
:102260000800370009f0a600100020000800370021
:10227000820f5400838f5c0003003900100020009f
:1022800001003e000000200009f0a7000000ea0065
:102290004f05be004f04be000000e0000000060035
:1022a000889fbe008a9fbe008c9fbe000404b800b9
:1022b0000506b8008904460060854e000606b80091
:1022c0000a054600e0854e000706b8008b0546006b
:1022d000040eb800890446000a854e00e0854d00d2
:1022e000050eb8000a0546008b854e00060eb800a4
:1022f0008b0546000416b8000a0546008b854e0083
:102300000516b8008b054600041eb8008b05460074
:102310000800be000a01be004f06be004f05be0009
:102320004f04be00000006002700200001f0a700b7
:1023300017002000470bde00f60fb2000400320049
:102340000643e8000a0032004702b300000006001e
:1023500001037800f607b2000603700002003a009d
:102360000703b300000006008702b3000000060068
:1023700001037800f607b200060370000200320085
:102380000770a000000006000760a0000000060023
:102390000100e000210032008201e8002b0035003e
:1023a0007e0211001e0034006011b8007020e100b0
:1023b000040035008001780001007800cf88de003d
:1023c000700252000400e0000700320003017800b0
:1023d000700312008601dd000400de00860bdd00c4
:1023e000070070008488de00e1026000060028001b
:1023f00003036300f7ff2700838363008283730076
:102400000600e00005003200078172000200e000d3
:102410000200320061004000e08048000000060039
:102420007e10e10001003a00000006000100e0001b
:1024300003003500f1ff2700f0ff2f000000060029
:102440000100280000002000000006006000b80025
:10245000000006006218e1003b003500889fbe00c6
:102460008a9fbe008c9fbe008301e9000004be006d
:102470000205be0004067800620545000a05ea0070
:102480003c00be007050e100170035000d00320026
:102490007f50e10001003400fa012000f0065500f1
:1024a0000801be00520007000d99de00cf99de0042
:1024b0003c004100bc8049008b05e900f8ff3c006e
:1024c000140037000801be0049000700030178002e
:1024d000cf99de003c004100bc8049008b05e9003b
:1024e000f8ff3c000b003700f00615000801be00a5
:1024f0003f0007000a11de008d1add0005017100a2
:102500008a99de003c004100bc8049008b05e9004f
:10251000f6ff3c000103df000605ea000500340079
:102520008a08dd00700215008402de0085807000dc
:102530000a00dd00060178004f06be004f05be0010
:102540004f04be00000006000300e00002003a0055
:102550006000b800020005003400be000200050063
:102560008001eb000202df000402ea006f20e100bc
:1025700010003a000201d1000181d3008080d30015
:102580004f00dd00f30020000202df000402ea0039
:102590006f20e10007003a000201d1000181d30061
:1025a0008080d3000000eb00e30120000202df0086
:1025b0000402ea000400e00009003200f002120008
:1025c0000411dd00050bde00060171008408dd004a
:1025d0000503de00868070000400dd008481410078
:1025e0000200e000010032000000060003000500c8
:1025f000889fbe008a9fbe008c1f78000002be002c
:102600000203be000620b800062db8008a804000f4
:1026100060814d000724b800072db8008a8444006b
:1026200060864d008100440002814c00e0014e00b4
:102630000700e000080035000500e00002003d0052
:1026400006015100878159004f0678004f05be00f2
:102650004f04be00000006000401510085815900ae
:10266000f5ff37000002eb008302df008502ea007d
:102670006f28e10023003a008301d1008281d3005a
:102680000181d3008080d3004f00dd00f4002000e2
:102690008302df008502ea006f28e10019003a009a
:1026a0008301d1008281d3000181d3008080d300d7
:1026b0000000eb00e40120008302df008502ea0055
:1026c0006f28e1000f003a008301d1008281d3001e
:1026d0000181d3008000eb00d40220008302df00e0
:1026e0008502ea006f28e10006003a008301d1006c
:1026f0008281d3000001eb00c40320008302df00cd
:102700008502ea000500e0000c0032007083120030
:102710008519dd008613de00878171000511dd005b
:10272000860bde00070171008508dd008603de00f0
:10273000878070000500dd00050242000300e00014
:0c2740000100320000000600040005004b
:020000040000fa
:10274c0000000000060000000c0000001200000059
:10275c00190000001f000000250000002b000000e5
:10276c0032000000380000003e0000004500000070
:10277c004b00000051000000570000005e000000fc
:10278c00640000006a000000710000007700000087
:10279c007d000000830000008a0000009000000013
:1027ac00960000009d000000a3000000a90000009e
:1027bc00af000000b6000000bc000000c20000002a
:1027cc00c9000000cf000000d5000000db000000b5
:1027dc00e2000000e8000000ee000000f500000040
:1027ec00fb00000001010000070100000e010000c9
:1027fc00140100001a010000210100002701000053
:10280c002d010000330100003a01000040010000de
:10281c00460100004c01000053010000590100006a
:10282c005f010000660100006c01000072010000f5
:10283c00780100007f010000850100008b01000081
:10284c0092010000980100009e010000a40100000c
:10285c00ab010000b1010000b7010000be01000097
:10286c00c4010000ca010000d0010000d701000023
:10287c00dd010000e3010000ea010000f0010000ae
:10288c00f6010000fc010000030200000902000038
:10289c000f020000160200001c02000022020000c1
:1028ac00280200002f020000350200003b0200004d
:1028bc0042020000480200004e02000054020000d8
:1028cc005b02000061020000670200006d02000064
:1028dc00740200007a0200008002000087020000ef
:1028ec008d0200009302000099020000a00200007b
:1028fc00a6020000ac020000b3020000b902000006
:10290c00bf020000c5020000cc020000d202000091
:10291c00d8020000df020000e5020000eb0200001c
:10292c00f1020000f8020000fe02000004030000a7
:10293c000b03000011030000170300001d0300002f
:10294c00240300002a0300003003000036030000bb
:10295c003d03000043030000490300005003000046
:10296c00560300005c0300006203000069030000d2
:10297c006f030000750300007c030000820300005d
:10298c00880300008e030000950300009b030000e9
:10299c00a1030000a8030000ae030000b403000074
:1029ac00ba030000c1030000c7030000cd03000000
:1029bc00d4030000da030000e0030000e60300008b
:1029cc00ed030000f3030000f9030000ff03000017
:1029dc00060400000c04000012040000190400009e
:1029ec001f040000250400002b040000320400002a
:1029fc00380400003e040000450400004b040000b5
:102a0c0051040000570400005e0400006404000040
:102a1c006a04000070040000770400007d040000cc
:102a2c00830400008a040000900400009604000057
:102a3c009c040000a3040000a9040000af040000e3
:102a4c00b6040000bc040000c2040000c80400006e
:102a5c00cf040000d5040000db040000e2040000f9
:102a6c00e8040000ee040000f4040000fb04000085
:102a7c0001050000070500000d050000140500000d
:102a8c001a05000020050000270500002d05000098
:102a9c003305000039050000400500004605000024
:102aac004c05000053050000590500005f050000af
:102abc00650500006c05000072050000780500003b
:102acc007e050000850500008b05000091050000c7
:102adc00980500009e050000a4050000aa05000052
:102aec00b1050000b7050000bd050000c4050000dd
:102afc00ca050000d0050000d6050000dd05000069
:102b0c00e3050000e9050000ef050000f6050000f4
:102b1c00fc05000002060000090600000f0600007c
:102b2c00150600001b060000220600002806000007
:102b3c002e060000340600003b0600004106000093
:102b4c00470600004e060000540600005a0600001e
:102b5c0060060000670600006d06000073060000aa
:102b6c007a06000080060000860600008c06000035
:102b7c0093060000990600009f060000a5060000c1
:102b8c00ac060000b2060000b8060000bf0600004c
:102b9c00c5060000cb060000d1060000d8060000d8
:102bac00de060000e4060000ea060000f106000064
:102bbc00f7060000fd060000040700000a070000ed
:102bcc0010070000160700001d0700002307000077
:102bdc00290700002f070000360700003c07000003
:102bec0042070000490700004f070000550700008e
:102bfc005b07000062070000680700006e0700001a
:102c0c00740700007b0700008107000087070000a5
:102c1c008e070000940700009a070000a007000030
:102c2c00a7070000ad070000b3070000b9070000bc
:102c3c00c0070000c6070000cc070000d307000047
:102c4c00d9070000df070000e5070000ec070000d3
:102c5c00f2070000f8070000fe070000050800005e
:102c6c000b08000011080000180800001e080000e6
:102c7c00240800002a080000310800003708000072
:102c8c003d080000430800004a08000050080000fe
:102c9c00560800005c08000063080000690800008a
:102cac006f080000760800007c0800008208000015
:102cbc00880800008f080000950800009b080000a1
:102ccc00a1080000a8080000ae080000b40800002d
:102cdc00bb080000c1080000c7080000cd080000b8
:102cec00d4080000da080000e0080000e608000044
:102cfc00ed080000f3080000f9080000ff080000d0
:102d0c00060900000c090000120900001909000056
:102d1c001f090000250900002b09000032090000e2
:102d2c00380900003e090000440900004b0900006e
:102d3c0051090000570900005d09000064090000fa
:102d4c006a09000070090000770900007d09000085
:102d5c008309000089090000900900009609000011
:102d6c009c090000a2090000a9090000af0900009d
:102d7c00b5090000bb090000c2090000c809000029
:102d8c00ce090000d4090000db090000e1090000b5
:102d9c00e7090000ee090000f4090000fa09000040
:102dac00000a0000070a00000d0a0000130a0000c8
:102dbc00190a0000200a0000260a00002c0a000054
:102dcc00320a0000390a00003f0a0000450a0000e0
:102ddc004c0a0000520a0000580a00005e0a00006b
:102dec00650a00006b0a0000710a0000770a0000f7
:102dfc007e0a0000840a00008a0a0000900a000083
:102e0c00970a00009d0a0000a30a0000a90a00000e
:102e1c00b00a0000b60a0000bc0a0000c20a00009a
:102e2c00c90a0000cf0a0000d50a0000dc0a000025
:102e3c00e20a0000e80a0000ee0a0000f50a0000b1
:102e4c00fb0a0000010b0000070b00000e0b00003a
:102e5c00140b00001a0b0000200b0000270b0000c5
:102e6c002d0b0000330b0000390b0000400b000051
:102e7c00460b00004c0b0000520b0000590b0000dd
:102e8c005f0b0000650b00006b0b0000720b000069
:102e9c00780b00007e0b0000850b00008b0b0000f4
:102eac00910b0000970b00009e0b0000a40b000080
:102ebc00aa0b0000b00b0000b70b0000bd0b00000c
:102ecc00c30b0000c90b0000d00b0000d60b000098
:102edc00dc0b0000e20b0000e90b0000ef0b000024
:102eec00f50b0000fb0b0000020c0000080c0000ae
:102efc000e0c0000140c00001b0c0000210c000038
:102f0c00270c00002d0c0000340c00003a0c0000c3
:102f1c00400c0000460c00004d0c0000530c00004f
:102f2c00590c00005f0c0000660c00006c0c0000db
:102f3c00720c0000780c00007f0c0000850c000067
:102f4c008b0c0000910c0000980c00009e0c0000f3
:102f5c00a40c0000aa0c0000b10c0000b70c00007f
:102f6c00bd0c0000c30c0000ca0c0000d00c00000b
:102f7c00d60c0000dd0c0000e30c0000e90c000096
:102f8c00ef0c0000f60c0000fc0c0000020d000021
:102f9c00080d00000f0d0000150d00001b0d0000aa
:102fac00210d0000280d00002e0d0000340d000036
:102fbc003a0d0000410d0000470d00004d0d0000c2
:102fcc00530d00005a0d0000600d0000660d00004e
:102fdc006c0d0000720d0000790d00007f0d0000db
:102fec00850d00008b0d0000920d0000980d000067
:102ffc009e0d0000a40d0000ab0d0000b10d0000f3
:10300c00b70d0000bd0d0000c40d0000ca0d00007e
:10301c00d00d0000d60d0000dd0d0000e30d00000a
:10302c00e90d0000ef0d0000f60d0000fc0d000096
:10303c00020e0000080e00000f0e0000150e00001e
:10304c001b0e0000210e0000280e00002e0e0000aa
:10305c00340e00003a0e0000410e0000470e000036
:10306c004d0e0000530e00005a0e0000600e0000c2
:10307c00660e00006c0e0000730e0000790e00004e
:10308c007f0e0000850e00008c0e0000920e0000da
:10309c00980e00009e0e0000a50e0000ab0e000066
:1030ac00b10e0000b70e0000bd0e0000c40e0000f3
:1030bc00ca0e0000d00e0000d60e0000dd0e00007f
:1030cc00e30e0000e90e0000ef0e0000f60e00000b
:1030dc00fc0e0000020f0000080f00000f0f000094
:1030ec00150f00001b0f0000210f0000280f00001f
:1030fc002e0f0000340f00003a0f0000410f0000ab
:10310c00470f00004d0f0000530f0000590f000037
:10311c00600f0000660f00006c0f0000720f0000c3
:10312c00790f00007f0f0000850f00008b0f00004f
:10313c00920f0000980f00009e0f0000a40f0000db
:10314c00ab0f0000b10f0000b70f0000bd0f000067
:10315c00c30f0000ca0f0000d00f0000d60f0000f4
:10316c00dc0f0000e30f0000e90f0000ef0f000080
:10317c00f50f0000fc0f000002100000081000000a
:10318c000e100000151000001b1000002110000094
:10319c00271000002d100000341000003a10000021
:1031ac0040100000461000004d10000053100000ad
:1031bc00591000005f100000661000006c10000039
:1031cc0072100000781000007e10000085100000c6
:1031dc008b10000091100000971000009e10000052
:1031ec00a4100000aa100000b0100000b7100000de
:1031fc00bd100000c3100000c9100000cf1000006b
:10320c00d6100000dc100000e2100000e8100000f6
:10321c00ef100000f5100000fb1000000111000081
:10322c00071100000e110000141100001a1100000b
:10323c0020110000271100002d1100003311000097
:10324c003911000040110000461100004c11000023
:10325c0052110000581100005f11000065110000b0
:10326c006b11000071110000781100007e1100003c
:10327c00841100008a1100009011000097110000c9
:10328c009d110000a3110000a9110000b011000055
:10329c00b6110000bc110000c2110000c8110000e2
:1032ac00cf110000d5110000db110000e11100006e
:1032bc00e8110000ee110000f4110000fa110000fa
:1032cc0000120000071200000d1200001312000083
:1032dc001912000020120000261200002c1200000f
:1032ec0032120000381200003f120000451200009c
:1032fc004b12000051120000581200005e12000028
:10330c00641200006a1200007012000077120000b4
:10331c007d12000083120000891200008f12000041
:10332c00961200009c120000a2120000a8120000cd
:10333c00af120000b5120000bb120000c112000059
:10334c00c7120000ce120000d4120000da120000e6
:10335c00e0120000e6120000ed120000f312000073
:10336c00f9120000ff120000061300000c130000fd
:10337c0012130000181300001e1300002513000088
:10338c002b13000031130000371300003d13000015
:10339c00441300004a1300005013000056130000a1
:1033ac005d13000063130000691300006f1300002d
:1033bc00751300007c1300008213000088130000ba
:1033cc008e130000941300009b130000a113000047
:1033dc00a7130000ad130000b3130000ba130000d4
:1033ec00c0130000c6130000cc130000d213000061
:1033fc00d9130000df130000e5130000eb130000ed
:10340c00f2130000f8130000fe1300000414000077
:10341c000a14000011140000171400001d14000001
:10342c00231400002914000030140000361400008e
:10343c003c14000042140000481400004f1400001b
:10344c00551400005b1400006114000067140000a8
:10345c006e140000741400007a1400008014000034
:10346c00861400008d1400009314000099140000c1
:10347c009f140000a5140000ac140000b21400004e
:10348c00b8140000be140000c4140000cb140000db
:10349c00d1140000d7140000dd140000e314000068
:1034ac00ea140000f0140000f6140000fc140000f4
:1034bc0002150000091500000f150000151500007d
:1034cc001b15000021150000281500002e1500000a
:1034dc00341500003a150000401500004715000097
:1034ec004d15000053150000591500005f15000024
:1034fc00661500006c1500007215000078150000b0
:10350c007e150000851500008b150000911500003c
:10351c00971500009d150000a3150000aa150000ca
:10352c00b0150000b6150000bc150000c215000057
:10353c00c9150000cf150000d5150000db150000e3
:10354c00e1150000e8150000ee150000f415000070
:10355c00fa15000000160000071600000d160000fa
:10356c0013160000191600001f1600002516000087
:10357c002c16000032160000381600003e16000013
:10358c00441600004b1600005116000057160000a0
:10359c005d160000631600006a160000701600002d
:1035ac00761600007c1600008216000088160000bb
:1035bc008f160000951600009b160000a116000047
:1035cc00a7160000ae160000b4160000ba160000d4
:1035dc00c0160000c6160000cc160000d316000062
:1035ec00d9160000df160000e5160000eb160000ef
:1035fc00f2160000f8160000fe160000041700007a
:10360c000a17000010170000171700001d17000004
:10361c0023170000291700002f1700003617000091
:10362c003c17000042170000481700004e1700001e
:10363c00541700005b1700006117000067170000ab
:10364c006d170000731700007a1700008017000038
:10365c00861700008c1700009217000098170000c6
:10366c009f170000a5170000ab170000b117000052
:10367c00b7170000bd170000c4170000ca170000e0
:10368c00d0170000d6170000dc170000e21700006e
:10369c00e9170000ef170000f5170000fb170000fa
:1036ac0001180000081800000e1800001418000083
:1036bc001a18000020180000261800002d18000011
:1036cc0033180000391800003f180000451800009e
:1036dc004b18000052180000581800005e1800002b
:1036ec00641800006a1800007018000077180000b9
:1036fc007d18000083180000891800008f18000046
:10370c00951800009c180000a2180000a8180000d2
:10371c00ae180000b4180000ba180000c118000060
:10372c00c7180000cd180000d3180000d9180000ed
:10373c00df180000e6180000ec180000f21800007a
:10374c00f8180000fe180000041900000b19000006
:10375c0011190000171900001d1900002319000091
:10376c00291900002f190000361900003c1900001f
:10377c0042190000481900004e19000054190000ad
:10378c005b19000061190000671900006d19000039
:10379c0073190000791900008019000086190000c7
:1037ac008c19000092190000981900009e19000055
:1037bc00a4190000ab190000b1190000b7190000e2
:1037cc00bd190000c3190000c9190000d019000070
:1037dc00d6190000dc190000e2190000e8190000fd
:1037ec00ee190000f4190000fb190000011a00008a
:1037fc00071a00000d1a0000131a0000191a000015
:10380c00201a0000261a00002c1a0000321a0000a0
:10381c00381a00003e1a0000441a00004b1a00002f
:10382c00511a0000571a00005d1a0000631a0000bc
:10383c00691a00006f1a0000761a00007c1a00004a
:10384c00821a0000881a00008e1a0000941a0000d8
:10385c009b1a0000a11a0000a71a0000ad1a000064
:10386c00b31a0000b91a0000bf1a0000c61a0000f3
:10387c00cc1a0000d21a0000d81a0000de1a000080
:10388c00e41a0000ea1a0000f11a0000f71a00000e
:10389c00fd1a0000031b0000091b00000f1b000099
:1038ac00151b00001c1b0000221b0000281b000025
:1038bc002e1b0000341b00003a1b0000401b0000b4
:1038cc00461b00004d1b0000531b0000591b000041
:1038dc005f1b0000651b00006b1b0000711b0000d0
:1038ec00781b00007e1b0000841b00008a1b00005c
:1038fc00901b0000961b00009c1b0000a31b0000eb
:10390c00a91b0000af1b0000b51b0000bb1b000077
:10391c00c11b0000c71b0000cd1b0000d41b000006
:10392c00da1b0000e01b0000e61b0000ec1b000093
:10393c00f21b0000f81b0000ff1b0000051c000020
:10394c000b1c0000111c0000171c00001d1c0000ab
:10395c00231c0000291c0000301c0000361c000039
:10396c003c1c0000421c0000481c00004e1c0000c7
:10397c00541c00005a1c0000611c0000671c000055
:10398c006d1c0000731c0000791c00007f1c0000e3
:10399c00851c00008b1c0000921c0000981c000071
:1039ac009e1c0000a41c0000aa1c0000b01c0000ff
:1039bc00b61c0000bc1c0000c31c0000c91c00008d
:1039cc00cf1c0000d51c0000db1c0000e11c00001b
:1039dc00e71c0000ed1c0000f41c0000fa1c0000a9
:1039ec00001d0000061d00000c1d0000121d000033
:1039fc00181d00001e1d0000251d00002b1d0000c1
:103a0c00311d0000371d00003d1d0000431d00004e
:103a1c00491d00004f1d0000551d00005c1d0000dd
:103a2c00621d0000681d00006e1d0000741d00006a
:103a3c007a1d0000801d0000861d00008c1d0000fa
:103a4c00931d0000991d00009f1d0000a51d000086
:103a5c00ab1d0000b11d0000b71d0000bd1d000016
:103a6c00c31d0000ca1d0000d01d0000d61d0000a3
:103a7c00dc1d0000e21d0000e81d0000ee1d000032
:103a8c00f41d0000fa1d0000011e0000071e0000be
:103a9c000d1e0000131e0000191e00001f1e00004a
:103aac00251e00002b1e0000311e0000381e0000d9
:103abc003e1e0000441e00004a1e0000501e000066
:103acc00561e00005c1e0000621e0000681e0000f6
:103adc006e1e0000751e00007b1e0000811e000083
:103aec00871e00008d1e0000931e0000991e000012
:103afc009f1e0000a51e0000ab1e0000b21e0000a1
:103b0c00b81e0000be1e0000c41e0000ca1e00002d
:103b1c00d01e0000d61e0000dc1e0000e21e0000bd
:103b2c00e81e0000ef1e0000f51e0000fb1e00004a
:103b3c00011f0000071f00000d1f0000131f0000d5
:103b4c00191f00001f1f0000251f00002c1f000064
:103b5c00321f0000381f00003e1f0000441f0000f1
:103b6c004a1f0000501f0000561f00005c1f000081
:103b7c00621f0000681f00006f1f0000751f00000f
:103b8c007b1f0000811f0000871f00008d1f00009d
:103b9c00931f0000991f00009f1f0000a51f00002d
:103bac00ab1f0000b21f0000b81f0000be1f0000ba
:103bbc00c41f0000ca1f0000d01f0000d61f000049
:103bcc00dc1f0000e21f0000e81f0000ee1f0000d9
:103bdc00f41f0000fb1f0000012000000720000064
:103bec000d20000013200000192000001f200000f1
:103bfc00252000002b200000312000003720000081
:103c0c003d200000442000004a200000502000000d
:103c1c00562000005c20000062200000682000009c
:103c2c006e200000742000007a200000802000002c
:103c3c00862000008c2000009320000099200000ba
:103c4c009f200000a5200000ab200000b120000048
:103c5c00b7200000bd200000c3200000c9200000d8
:103c6c00cf200000d5200000db200000e120000068
:103c7c00e8200000ee200000f4200000fa200000f4
:103c8c0000210000062100000c2100001221000080
:103c9c00182100001e210000242100002a21000010
:103cac0030210000362100003d210000432100009e
:103cbc00492100004f210000552100005b2100002c
:103ccc0061210000672100006d21000073210000bc
:103cdc00792100007f210000852100008b2100004c
:103cec0091210000982100009e210000a4210000d9
:103cfc00aa210000b0210000b6210000bc21000068
:103d0c00c2210000c8210000ce210000d4210000f7
:103d1c00da210000e0210000e6210000ec21000087
:103d2c00f2210000f8210000ff2100000522000014
:103d3c000b22000011220000172200001d2200009f
:103d4c0023220000292200002f220000352200002f
:103d5c003b22000041220000472200004d220000bf
:103d6c0053220000592200005f220000652200004f
:103d7c006c22000072220000782200007e220000db
:103d8c00842200008a22000090220000962200006b
:103d9c009c220000a2220000a8220000ae220000fb
:103dac00b4220000ba220000c0220000c62200008b
:103dbc00cc220000d2220000d8220000de2200001b
:103dcc00e4220000eb220000f1220000f7220000a8
:103ddc00fd22000003230000092300000f23000034
:103dec00152300001b2300002123000027230000c3
:103dfc002d23000033230000392300003f23000053
:103e0c00452300004b2300005123000057230000e2
:103e1c005d23000063230000692300006f23000072
:103e2c00752300007c2300008223000088230000ff
:103e3c008e230000942300009a230000a02300008e
:103e4c00a6230000ac230000b2230000b82300001e
:103e5c00be230000c4230000ca230000d0230000ae
:103e6c00d6230000dc230000e2230000e82300003e
:103e7c00ee230000f4230000fa23000000240000cd
:103e8c00062400000c24000012240000182400005a
:103e9c001e240000242400002a24000030240000ea
:103eac00362400003d240000432400004924000077
:103ebc004f240000552400005b2400006124000006
:103ecc00672400006d240000732400007924000096
:103edc007f240000852400008b2400009124000026
:103eec00972400009d240000a3240000a9240000b6
:103efc00af240000b5240000bb240000c124000046
:103f0c00c7240000cd240000d3240000d9240000d5
:103f1c00df240000e5240000eb240000f124000065
:103f2c00f7240000fd2400000325000009250000f3
:103f3c000f250000152500001b2500002125000081
:103f4c00272500002d250000332500003925000011
:103f5c003f250000452500004b25000051250000a1
:103f6c00572500005d250000632500006925000031
:103f7c006f250000752500007b25000081250000c1
:103f8c00872500008d250000932500009925000051
:103f9c009f250000a5250000ab250000b1250000e1
:103fac00b7250000bd250000c3250000c925000071
:103fbc00cf250000d5250000db250000e125000001
:103fcc00e7250000ed250000f3250000f925000091
:103fdc00ff250000052600000b260000112600001e
:103fec00172600001d2600002326000029260000ad
:103ffc002f260000352600003b260000412600003d
:10400c00472600004d2600005326000059260000cc
:10401c005f260000652600006b260000712600005c
:10402c00772600007d2600008326000089260000ec
:10403c008f260000952600009b260000a12600007c
:10404c00a7260000ad260000b3260000b92600000c
:10405c00bf260000c5260000cb260000d12600009c
:10406c00d7260000dd260000e3260000e92600002c
:10407c00ef260000f5260000fb26000001270000bb
:10408c00072700000d270000132700001927000048
:10409c001f270000252700002b27000031270000d8
:1040ac00372700003d270000432700004927000068
:1040bc004f270000552700005b27000061270000f8
:1040cc00672700006d270000732700007927000088
:1040dc007f270000852700008b2700009127000018
:1040ec00972700009d270000a3270000a9270000a8
:1040fc00af270000b4270000ba270000c02700003b
:10410c00c6270000cc270000d2270000d8270000cb
:10411c00de270000e4270000ea270000f02700005b
:10412c00f6270000fc2700000228000008280000e9
:10413c000e280000142800001a2800002028000077
:10414c00262800002c280000322800003828000007
:10415c003e280000442800004a2800005028000097
:10416c00562800005c280000622800006828000027
:10417c006d28000073280000792800007f280000bb
:10418c00852800008b28000091280000972800004b
:10419c009d280000a3280000a9280000af280000db
:1041ac00b5280000bb280000c1280000c72800006b
:1041bc00cd280000d3280000d9280000df280000fb
:1041cc00e5280000eb280000f1280000f62800008c
:1041dc00fc28000002290000082900000e2900001c
:1041ec00142900001a2900002029000026290000ab
:1041fc002c29000032290000382900003e2900003b
:10420c00442900004a2900005029000056290000ca
:10421c005c29000062290000682900006d2900005b
:10422c0073290000792900007f29000085290000ee
:10423c008b29000091290000972900009d2900007e
:10424c00a3290000a9290000af290000b52900000e
:10425c00bb290000c1290000c7290000cd2900009e
:10426c00d2290000d8290000de290000e429000032
:10427c00ea290000f0290000f6290000fc290000c2
:10428c00022a0000082a00000e2a0000142a00004e
:10429c001a2a0000202a0000262a00002b2a0000df
:1042ac00312a0000372a00003d2a0000432a000072
:1042bc00492a00004f2a0000552a00005b2a000002
:1042cc00612a0000672a00006d2a0000732a000092
:1042dc00792a00007e2a0000842a00008a2a000025
:1042ec00902a0000962a00009c2a0000a22a0000b6
:1042fc00a82a0000ae2a0000b42a0000ba2a000046
:10430c00c02a0000c62a0000cc2a0000d12a0000d6
:10431c00d72a0000dd2a0000e32a0000e92a000069
:10432c00ef2a0000f52a0000fb2a0000012b0000f8
:10433c00072b00000d2b0000132b0000182b000086
:10434c001e2b0000242b00002a2b0000302b000019
:10435c00362b00003c2b0000422b0000482b0000a9
:10436c004e2b0000542b00005a2b00005f2b00003a
:10437c00652b00006b2b0000712b0000772b0000cd
:10438c007d2b0000832b0000892b00008f2b00005d
:10439c00952b00009b2b0000a02b0000a62b0000ef
:1043ac00ac2b0000b22b0000b82b0000be2b000081
:1043bc00c42b0000ca2b0000d02b0000d62b000011
:1043cc00db2b0000e12b0000e72b0000ed2b0000a5
:1043dc00f32b0000f92b0000ff2b0000052c000034
:1043ec000b2c0000112c0000162c00001c2c0000c3
:1043fc00222c0000282c00002e2c0000342c000055
:10440c003a2c0000402c0000462c00004c2c0000e4
:10441c00512c0000572c00005d2c0000632c000078
:10442c00692c00006f2c0000752c00007b2c000008
:10443c00812c0000862c00008c2c0000922c00009b
:10444c00982c00009e2c0000a42c0000aa2c00002c
:10445c00b02c0000b62c0000bb2c0000c12c0000be
:10446c00c72c0000cd2c0000d32c0000d92c000050
:10447c00df2c0000e52c0000eb2c0000f02c0000e1
:10448c00f62c0000fc2c0000022d0000082d000072
:10449c000e2d0000142d00001a2d00001f2d000001
:1044ac00252d00002b2d0000312d0000372d000094
:1044bc003d2d0000432d0000492d00004f2d000024
:1044cc00542d00005a2d0000602d0000662d0000b8
:1044dc006c2d0000722d0000782d00007d2d000049
:1044ec00832d0000892d00008f2d0000952d0000dc
:1044fc009b2d0000a12d0000a72d0000ac2d00006d
:10450c00b22d0000b82d0000be2d0000c42d0000ff
:10451c00ca2d0000d02d0000d62d0000db2d000090
:10452c00e12d0000e72d0000ed2d0000f32d000023
:10453c00f92d0000ff2d0000042e00000a2e0000b3
:10454c00102e0000162e00001c2e0000222e000043
:10455c00282e00002d2e0000332e0000392e0000d6
:10456c003f2e0000452e00004b2e0000512e000067
:10457c00562e00005c2e0000622e0000682e0000fb
:10458c006e2e0000742e00007a2e00007f2e00008c
:10459c00852e00008b2e0000912e0000972e00001f
:1045ac009d2e0000a32e0000a82e0000ae2e0000b1
:1045bc00b42e0000ba2e0000c02e0000c62e000043
:1045cc00cc2e0000d12e0000d72e0000dd2e0000d6
:1045dc00e32e0000e92e0000ef2e0000f42e000068
:1045ec00fa2e0000002f0000062f00000c2f0000f8
:1045fc00122f0000182f00001d2f0000232f000089
:10460c00292f00002f2f0000352f00003b2f00001a
:10461c00402f0000462f00004c2f0000522f0000ae
:10462c00582f00005e2f0000632f0000692f000040
:10463c006f2f0000752f00007b2f0000812f0000d2
:10464c00862f00008c2f0000922f0000982f000066
:10465c009e2f0000a42f0000a92f0000af2f0000f8
:10466c00b52f0000bb2f0000c12f0000c72f00008a
:10467c00cc2f0000d22f0000d82f0000de2f00001e
:10468c00e42f0000ea2f0000ef2f0000f52f0000b0
:10469c00fb2f000001300000073000000d3000003f
:1046ac0012300000183000001e30000024300000d2
:1046bc002a3000002f300000353000003b30000065
:1046cc0041300000473000004d30000052300000f7
:1046dc00583000005e300000643000006a3000008a
:1046ec006f300000753000007b300000813000001e
:1046fc00873000008d3000009230000098300000b0
:10470c009e300000a4300000aa300000af30000042
:10471c00b5300000bb300000c1300000c7300000d5
:10472c00cc300000d2300000d8300000de30000069
:10473c00e4300000e9300000ef300000f5300000fc
:10474c00fb30000001310000063100000c3100008c
:10475c0012310000183100001e310000243100001d
:10476c00293100002f310000353100003b310000b1
:10477c0041310000463100004c3100005231000044
:10478c00583100005e3100006331000069310000d7
:10479c006f310000753100007a310000803100006b
:1047ac00863100008c3100009231000097310000fe
:1047bc009d310000a3310000a9310000af31000091
:1047cc00b4310000ba310000c0310000c631000025
:1047dc00cc310000d1310000d7310000dd310000b8
:1047ec00e3310000e8310000ee310000f43100004c
:1047fc00fa31000000320000053200000b320000dc
:10480c0011320000173200001d320000223200006d
:10481c00283200002e320000343200003932000001
:10482c003f320000453200004b3200005132000094
:10483c00563200005c320000623200006832000028
:10484c006d32000073320000793200007f320000bc
:10485c00853200008a32000090320000963200004f
:10486c009c320000a1320000a7320000ad320000e3
:10487c00b3320000b8320000be320000c432000077
:10488c00ca320000d0320000d5320000db3200000a
:10489c00e1320000e7320000ec320000f23200009e
:1048ac00f8320000fe320000033300000933000030
:1048bc000f330000153300001a33000020330000c2
:1048cc00263300002c330000323300003733000055
:1048dc003d33000043330000493300004e330000e9
:1048ec00543300005a33000060330000653300007d
:1048fc006b33000071330000773300007c33000011
:10490c0082330000883300008e33000093330000a4
:10491c00993300009f330000a5330000aa33000038
:10492c00b0330000b6330000bc330000c1330000cc
:10493c00c7330000cd330000d3330000d833000060
:10494c00de330000e4330000ea330000ef330000f4
:10495c00f5330000fb330000003400000634000087
:10496c000c34000012340000173400001d34000019
:10497c0023340000293400002e34000034340000ad
:10498c003a34000040340000453400004b34000041
:10499c0051340000573400005c34000062340000d5
:1049ac00683400006d34000073340000793400006a
:1049bc007f340000843400008a34000090340000fe
:1049cc00963400009b340000a1340000a734000092
:1049dc00ad340000b2340000b8340000be34000026
:1049ec00c3340000c9340000cf340000d5340000bb
:1049fc00da340000e0340000e6340000eb34000050
:104a0c00f1340000f7340000fd34000002350000e2
:104a1c00083500000e350000143500001935000073
:104a2c001f350000253500002a3500003035000008
:104a3c00363500003c35000041350000473500009c
:104a4c004d35000052350000583500005e35000031
:104a5c0063350000693500006f35000075350000c6
:104a6c007a35000080350000863500008b3500005b
:104a7c0091350000973500009d350000a2350000ef
:104a8c00a8350000ae350000b3350000b935000084
:104a9c00bf350000c4350000ca350000d035000019
:104aac00d6350000db350000e1350000e7350000ad
:104abc00ec350000f2350000f8350000fd35000043
:104acc0003360000093600000f36000014360000d3
:104adc001a36000020360000253600002b36000068
:104aec0031360000363600003c36000042360000fd
:104afc00483600004d360000533600005936000091
:104b0c005e360000643600006a3600006f36000026
:104b1c00753600007b3600008036000086360000bb
:104b2c008c36000091360000973600009d36000050
:104b3c00a2360000a8360000ae360000b4360000e5
:104b4c00b9360000bf360000c5360000ca3600007a
:104b5c00d0360000d6360000db360000e13600000f
:104b6c00e7360000ec360000f2360000f8360000a4
:104b7c00fd36000003370000093700000e37000037
:104b8c00143700001a3700001f37000025370000cb
:104b9c002b37000030370000363700003c37000060
:104bac0041370000473700004d37000052370000f6
:104bbc00583700005e37000063370000693700008b
:104bcc006f370000743700007a3700008037000020
:104bdc00853700008b3700009137000096370000b6
:104bec009c370000a2370000a7370000ad3700004b
:104bfc00b3370000b8370000be370000c4370000e0
:104c0c00c9370000cf370000d5370000da37000075
:104c1c00e0370000e5370000eb370000f13700000b
:104c2c00f6370000fc37000002380000073800009f
:104c3c000d38000013380000183800001e38000032
:104c4c0024380000293800002f38000035380000c7
:104c5c003a38000040380000463800004b3800005d
:104c6c0051380000563800005c38000062380000f3
:104c7c00673800006d380000733800007838000089
:104c8c007e38000084380000893800008f3800001e
:104c9c00943800009a380000a0380000a5380000b5
:104cac00ab380000b1380000b6380000bc3800004a
:104cbc00c2380000c7380000cd380000d2380000e0
:104ccc00d8380000de380000e3380000e938000076
:104cdc00ef380000f4380000fa380000ff3800000c
:104cec00053900000b39000010390000163900009e
:104cfc001c39000021390000273900002c39000034
:104d0c0032390000383900003d39000043390000c9
:104d1c00493900004e39000054390000593900005f
:104d2c005f390000653900006a39000070390000f5
:104d3c00753900007b39000081390000863900008c
:104d4c008c39000092390000973900009d39000021
:104d5c00a2390000a8390000ae390000b3390000b8
:104d6c00b9390000be390000c4390000ca3900004e
:104d7c00cf390000d5390000da390000e0390000e5
:104d8c00e6390000eb390000f1390000f63900007b
:104d9c00fc390000023a0000073a00000d3a00000e
:104dac00123a0000183a00001e3a0000233a0000a4
:104dbc00293a00002e3a0000343a00003a3a00003a
:104dcc003f3a0000453a00004a3a0000503a0000d1
:104ddc00563a00005b3a0000613a0000663a000067
:104dec006c3a0000723a0000773a00007d3a0000fd
:104dfc00823a0000883a00008d3a0000933a000095
:104e0c00993a00009e3a0000a43a0000a93a00002a
:104e1c00af3a0000b53a0000ba3a0000c03a0000c0
:104e2c00c53a0000cb3a0000d13a0000d63a000057
:104e3c00dc3a0000e13a0000e73a0000ec3a0000ee
:104e4c00f23a0000f83a0000fd3a0000033b000083
:104e5c00083b00000e3b0000133b0000193b000018
:104e6c001f3b0000243b00002a3b00002f3b0000ae
:104e7c00353b00003a3b0000403b0000463b000045
:104e8c004b3b0000513b0000563b00005c3b0000dc
:104e9c00613b0000673b00006d3b0000723b000073
:104eac00783b00007d3b0000833b0000883b00000a
:104ebc008e3b0000933b0000993b00009f3b0000a1
:104ecc00a43b0000aa3b0000af3b0000b53b000038
:104edc00ba3b0000c03b0000c53b0000cb3b0000d0
:104eec00d13b0000d63b0000dc3b0000e13b000066
:104efc00e73b0000ec3b0000f23b0000f73b0000fe
:104f0c00fd3b0000033c0000083c00000e3c000090
:104f1c00133c0000193c00001e3c0000243c000027
:104f2c00293c00002f3c0000353c00003a3c0000be
:104f3c00403c0000453c00004b3c0000503c000055
:104f4c00563c00005b3c0000613c0000663c0000ed
:104f5c006c3c0000713c0000773c00007d3c000084
:104f6c00823c0000883c00008d3c0000933c00001b
:104f7c00983c00009e3c0000a33c0000a93c0000b3
:104f8c00ae3c0000b43c0000b93c0000bf3c00004b
:104f9c00c43c0000ca3c0000d03c0000d53c0000e2
:104fac00db3c0000e03c0000e63c0000eb3c000079
:104fbc00f13c0000f63c0000fc3c0000013d000010
:104fcc00073d00000c3d0000123d0000173d0000a5
:104fdc001d3d0000223d0000283d00002d3d00003d
:104fec00333d0000383d00003e3d0000433d0000d5
:104ffc00493d00004f3d0000543d00005a3d00006b
:10500c005f3d0000653d00006a3d0000703d000002
:10501c00753d00007b3d0000803d0000863d00009a
:10502c008b3d0000913d0000963d00009c3d000032
:10503c00a13d0000a73d0000ac3d0000b23d0000ca
:10504c00b73d0000bd3d0000c23d0000c83d000062
:10505c00cd3d0000d33d0000d83d0000de3d0000fa
:10506c00e33d0000e93d0000ee3d0000f43d000092
:10507c00f93d0000ff3d0000043e00000a3e000028
:10508c000f3e0000153e00001a3e0000203e0000be
:10509c00253e00002b3e0000303e0000363e000056
:1050ac003b3e0000413e0000463e00004c3e0000ee
:1050bc00513e0000573e00005c3e0000623e000086
:1050cc00673e00006d3e0000723e0000783e00001e
:1050dc007d3e0000823e0000883e00008d3e0000b8
:1050ec00933e0000983e00009e3e0000a33e000050
:1050fc00a93e0000ae3e0000b43e0000b93e0000e8
:10510c00bf3e0000c43e0000ca3e0000cf3e00007f
:10511c00d53e0000da3e0000e03e0000e53e000017
:10512c00eb3e0000f03e0000f53e0000fb3e0000b0
:10513c00003f0000063f00000b3f0000113f000045
:10514c00163f00001c3f0000213f0000273f0000dd
:10515c002c3f0000323f0000373f00003d3f000075
:10516c00423f0000473f00004d3f0000523f00000f
:10517c00583f00005d3f0000633f0000683f0000a7
:10518c006e3f0000733f0000793f00007e3f00003f
:10519c00843f0000893f00008e3f0000943f0000d8
:1051ac00993f00009f3f0000a43f0000aa3f000071
:1051bc00af3f0000b53f0000ba3f0000bf3f00000a
:1051cc00c53f0000ca3f0000d03f0000d53f0000a3
:1051dc00db3f0000e03f0000e63f0000eb3f00003b
:1051ec00f03f0000f63f0000fb3f000001400000d4
:1051fc00064000000c400000114000001740000069
:10520c001c40000021400000274000002c40000002
:10521c0032400000374000003d400000424000009a
:10522c00474000004d400000524000005840000034
:10523c005d40000063400000684000006e400000cc
:10524c0073400000784000007e4000008340000066
:10525c00894000008e4000009440000099400000fe
:10526c009e400000a4400000a9400000af40000098
:10527c00b4400000b9400000bf400000c440000032
:10528c00ca400000cf400000d5400000da400000ca
:10529c00df400000e5400000ea400000f040000064
:1052ac00f5400000fa4000000041000005410000fc
:1052bc000b41000010410000164100001b41000092
:1052cc0020410000264100002b410000314100002c
:1052dc00364100003b4100004141000046410000c6
:1052ec004c41000051410000564100005c4100005f
:1052fc0061410000674100006c41000071410000f9
:10530c00774100007c410000824100008741000091
:10531c008c41000092410000974100009d4100002b
:10532c00a2410000a7410000ad410000b2410000c5
:10533c00b8410000bd410000c2410000c84100005e
:10534c00cd410000d2410000d8410000dd410000f9
:10535c00e3410000e8410000ed410000f341000092
:10536c00f8410000fe41000003420000084200002a
:10537c000e42000013420000184200001e420000c2
:10538c0023420000294200002e420000334200005c
:10539c00394200003e4200004442000049420000f5
:1053ac004e42000054420000594200005e42000090
:1053bc0064420000694200006e420000744200002a
:1053cc00794200007f4200008442000089420000c4
:1053dc008f42000094420000994200009f4200005e
:1053ec00a4420000aa420000af420000b4420000f8
:1053fc00ba420000bf420000c4420000ca42000092
:10540c00cf420000d4420000da420000df4200002c
:10541c00e4420000ea420000ef420000f5420000c6
:10542c00fa420000ff420000054300000a4300005e
:10543c000f430000154300001a4300001f430000f7
:10544c00254300002a4300002f4300003543000091
:10545c003a4300003f430000454300004a4300002c
:10546c0050430000554300005a43000060430000c5
:10547c00654300006a430000704300007543000060
:10548c007a43000080430000854300008a430000fb
:10549c0090430000954300009a430000a043000095
:1054ac00a5430000aa430000b0430000b543000030
:1054bc00ba430000c0430000c5430000ca430000cb
:1054cc00d0430000d5430000da430000e043000065
:1054dc00e5430000ea430000f0430000f543000000
:1054ec00fa43000000440000054400000a44000098
:1054fc000f440000154400001a4400001f44000033
:10550c00254400002a4400002f44000035440000cc
:10551c003a4400003f440000454400004a44000067
:10552c004f440000554400005a4400005f44000002
:10553c00654400006a4400006f440000744400009d
:10554c007a4400007f440000844400008a44000038
:10555c008f440000944400009a4400009f440000d3
:10556c00a4440000aa440000af440000b44400006e
:10557c00b9440000bf440000c4440000c94400000a
:10558c00cf440000d4440000d9440000df440000a4
:10559c00e4440000e9440000ee440000f444000040
:1055ac00f9440000fe4400000445000009450000d9
:1055bc000e45000013450000194500001e45000073
:1055cc0023450000294500002e450000334500000e
:1055dc00384500003e4500004345000048450000aa
:1055ec004e45000053450000584500005d45000045
:1055fc0063450000684500006d45000073450000e0
:10560c00784500007d45000082450000884500007b
:10561c008d45000092450000974500009d45000017
:10562c00a2450000a7450000ad450000b2450000b2
:10563c00b7450000bc450000c2450000c74500004e
:10564c00cc450000d1450000d7450000dc450000ea
:10565c00e1450000e6450000ec450000f145000086
:10566c00f6450000fc45000001460000064600001f
:10567c000b46000011460000164600001b460000b9
:10568c0020460000264600002b4600003046000055
:10569c00354600003b4600004046000045460000f1
:1056ac004a46000050460000554600005a4600008d
:1056bc005f460000654600006a4600006f46000029
:1056cc00744600007a4600007f46000084460000c5
:1056dc00894600008f460000944600009946000061
:1056ec009e460000a4460000a9460000ae460000fd
:1056fc00b3460000b8460000be460000c34600009a
:10570c00c8460000cd460000d3460000d846000035
:10571c00dd460000e2460000e8460000ed460000d1
:10572c00f2460000f7460000fd460000024700006c
:10573c00074700000c470000114700001747000006
:10574c001c47000021470000264700002c470000a2
:10575c0031470000364700003b470000404700003f
:10576c00464700004b4700005047000055470000db
:10577c005b47000060470000654700006a47000077
:10578c006f470000754700007a4700007f47000014
:10579c0084470000894700008f47000094470000b1
:1057ac00994700009e470000a3470000a94700004e
:1057bc00ae470000b3470000b8470000bd470000eb
:1057cc00c3470000c8470000cd470000d247000087
:1057dc00d8470000dd470000e2470000e747000023
:1057ec00ec470000f1470000f7470000fc470000c1
:1057fc0001480000064800000b480000114800005a
:10580c00164800001b4800002048000025480000f6
:10581c002b48000030480000354800003a48000092
:10582c003f480000454800004a4800004f4800002f
:10583c0054480000594800005e48000064480000cd
:10584c00694800006e48000073480000784800006a
:10585c007e48000083480000884800008d48000006
:10586c0092480000974800009d480000a2480000a4
:10587c00a7480000ac480000b1480000b648000042
:10588c00bc480000c1480000c6480000cb480000de
:10589c00d0480000d5480000db480000e04800007c
:1058ac00e5480000ea480000ef480000f44800001a
:1058bc00fa480000ff4800000449000009490000b4
:1058cc000e49000013490000194900001e49000050
:1058dc0023490000284900002d49000032490000ee
:1058ec00384900003d49000042490000474900008a
:1058fc004c49000051490000564900005c49000029
:10590c0061490000664900006b49000070490000c5
:10591c00754900007a490000804900008549000063
:10592c008a4900008f490000944900009949000001
:10593c009e490000a4490000a9490000ae4900009e
:10594c00b3490000b8490000bd490000c24900003d
:10595c00c8490000cd490000d2490000d7490000d9
:10596c00dc490000e1490000e6490000eb49000079
:10597c00f1490000f6490000fb490000004a000014
:10598c00054a00000a4a00000f4a0000144a0000b1
:10599c001a4a00001f4a0000244a0000294a00004d
:1059ac002e4a0000334a0000384a00003d4a0000ed
:1059bc00434a0000484a00004d4a0000524a000089
:1059cc00574a00005c4a0000614a0000664a000029
:1059dc006b4a0000714a0000764a00007b4a0000c6
:1059ec00804a0000854a00008a4a00008f4a000065
:1059fc00944a0000994a00009f4a0000a44a000003
:105a0c00a94a0000ae4a0000b34a0000b84a0000a0
:105a1c00bd4a0000c24a0000c74a0000cc4a000040
:105a2c00d24a0000d74a0000dc4a0000e14a0000dc
:105a3c00e64a0000eb4a0000f04a0000f54a00007c
:105a4c00fa4a0000ff4a0000054b00000a4b000018
:105a5c000f4b0000144b0000194b00001e4b0000b4
:105a6c00234b0000284b00002d4b0000324b000054
:105a7c00374b00003c4b0000424b0000474b0000f2
:105a8c004c4b0000514b0000564b00005b4b000090
:105a9c00604b0000654b00006a4b00006f4b000030
:105aac00744b0000794b00007e4b0000844b0000cf
:105abc00894b00008e4b0000934b0000984b00006c
